{
  "address": "0x7B112C8b6c300c9b7ceF69149eA14e0f350A8525",
  "abi": [
    {
      "anonymous": false,
      "inputs": [
        {
          "indexed": false,
          "internalType": "uint256",
          "name": "itemId",
          "type": "uint256"
        },
        {
          "indexed": false,
          "internalType": "string",
          "name": "item",
          "type": "string"
        }
      ],
      "name": "ItemCreated",
      "type": "event"
    },
    {
      "anonymous": false,
      "inputs": [
        {
          "indexed": false,
          "internalType": "uint256",
          "name": "itemId",
          "type": "uint256"
        },
        {
          "indexed": false,
          "internalType": "string",
          "name": "item",
          "type": "string"
        }
      ],
      "name": "ItemDeleted",
      "type": "event"
    },
    {
      "inputs": [
        {
          "internalType": "string",
          "name": "newItem",
          "type": "string"
        }
      ],
      "name": "createItem",
      "outputs": [],
      "stateMutability": "nonpayable",
      "type": "function"
    },
    {
      "inputs": [
        {
          "internalType": "uint256",
          "name": "itemId",
          "type": "uint256"
        }
      ],
      "name": "deleteItem",
      "outputs": [],
      "stateMutability": "nonpayable",
      "type": "function"
    },
    {
      "inputs": [
        {
          "internalType": "uint256",
          "name": "itemId",
          "type": "uint256"
        }
      ],
      "name": "getItem",
      "outputs": [
        {
          "components": [
            {
              "internalType": "uint256",
              "name": "itemId",
              "type": "uint256"
            },
            {
              "internalType": "string",
              "name": "item",
              "type": "string"
            }
          ],
          "internalType": "struct Todo.Item",
          "name": "item",
          "type": "tuple"
        }
      ],
      "stateMutability": "view",
      "type": "function"
    },
    {
      "inputs": [],
      "name": "getItems",
      "outputs": [
        {
          "components": [
            {
              "internalType": "uint256",
              "name": "itemId",
              "type": "uint256"
            },
            {
              "internalType": "string",
              "name": "item",
              "type": "string"
            }
          ],
          "internalType": "struct Todo.Item[]",
          "name": "",
          "type": "tuple[]"
        }
      ],
      "stateMutability": "view",
      "type": "function"
    },
    {
      "inputs": [
        {
          "internalType": "uint256",
          "name": "itemId",
          "type": "uint256"
        },
        {
          "internalType": "string",
          "name": "itemToUpdate",
          "type": "string"
        }
      ],
      "name": "updateItem",
      "outputs": [],
      "stateMutability": "nonpayable",
      "type": "function"
    }
  ],
  "transactionHash": "0xa5d476e3762b44cda83683c600c03e765b7eae88d97fbd8067848eed3d41b324",
  "args": [],
  "numDeployments": 3,
  "solcInputHash": "bfbfaa3940a152ef24bd73b6b0991840",
  "bytecode": "0x60806040526000805534801561001457600080fd5b50611020806100246000396000f3fe608060405234801561001057600080fd5b50600436106100575760003560e01c80633129e7731461005c5780633d54eebb1461008c578063410d59cc146100a8578063654fc833146100c6578063b065b2a9146100e2575b600080fd5b6100766004803603810190610071919061066f565b6100fe565b6040516100839190610778565b60405180910390f35b6100a660048036038101906100a191906108cf565b6101c7565b005b6100b0610268565b6040516100bd9190610a17565b60405180910390f35b6100e060048036038101906100db919061066f565b61043f565b005b6100fc60048036038101906100f79190610a39565b61054d565b005b6101066105ae565b600160008381526020019081526020016000206040518060400160405290816000820154815260200160018201805461013e90610ac4565b80601f016020809104026020016040519081016040528092919081815260200182805461016a90610ac4565b80156101b75780601f1061018c576101008083540402835291602001916101b7565b820191906000526020600020905b81548152906001019060200180831161019a57829003601f168201915b5050505050815250509050919050565b60016000546101d69190610b24565b600081905550604051806040016040528060005481526020018281525060016000805481526020019081526020016000206000820151816000015560208201518160010190816102269190610d04565b509050507f2931fd16a2d011bf618da74e9fc397f94aa1807d8916289525a36f0a7d2f12946000548260405161025d929190610e2f565b60405180910390a150565b60606000805467ffffffffffffffff811115610287576102866107a4565b5b6040519080825280602002602001820160405280156102c057816020015b6102ad6105ae565b8152602001906001900390816102a55790505b5090506000600190505b60005481116104375760006040516020016102e490610e90565b60405160208183030381529060405280519060200120600160008481526020019081526020016000206001016040516020016103209190610f28565b604051602081830303815290604052805190602001201490508061042357600160008381526020019081526020016000206040518060400160405290816000820154815260200160018201805461037690610ac4565b80601f01602080910402602001604051908101604052809291908181526020018280546103a290610ac4565b80156103ef5780601f106103c4576101008083540402835291602001916103ef565b820191906000526020600020905b8154815290600101906020018083116103d257829003601f168201915b505050505081525050836001846104069190610f3f565b8151811061041757610416610f73565b5b60200260200101819052505b50808061042f90610fa2565b9150506102ca565b508091505090565b600060016000838152602001908152602001600020600101805461046290610ac4565b80601f016020809104026020016040519081016040528092919081815260200182805461048e90610ac4565b80156104db5780601f106104b0576101008083540402835291602001916104db565b820191906000526020600020905b8154815290600101906020018083116104be57829003601f168201915b505050505090506001600083815260200190815260200160002060008082016000905560018201600061050e91906105c8565b50507fe0ad93833f221813aa90a974b345a7c84b0a6919c97eeef8f45ee4fd584a0a618282604051610541929190610e2f565b60405180910390a15050565b806001600084815260200190815260200160002060010190816105709190610d04565b507f2931fd16a2d011bf618da74e9fc397f94aa1807d8916289525a36f0a7d2f129482826040516105a2929190610e2f565b60405180910390a15050565b604051806040016040528060008152602001606081525090565b5080546105d490610ac4565b6000825580601f106105e65750610605565b601f0160209004906000526020600020908101906106049190610608565b5b50565b5b80821115610621576000816000905550600101610609565b5090565b6000604051905090565b600080fd5b600080fd5b6000819050919050565b61064c81610639565b811461065757600080fd5b50565b60008135905061066981610643565b92915050565b6000602082840312156106855761068461062f565b5b60006106938482850161065a565b91505092915050565b6106a581610639565b82525050565b600081519050919050565b600082825260208201905092915050565b60005b838110156106e55780820151818401526020810190506106ca565b60008484015250505050565b6000601f19601f8301169050919050565b600061070d826106ab565b61071781856106b6565b93506107278185602086016106c7565b610730816106f1565b840191505092915050565b6000604083016000830151610753600086018261069c565b506020830151848203602086015261076b8282610702565b9150508091505092915050565b60006020820190508181036000830152610792818461073b565b905092915050565b600080fd5b600080fd5b7f4e487b7100000000000000000000000000000000000000000000000000000000600052604160045260246000fd5b6107dc826106f1565b810181811067ffffffffffffffff821117156107fb576107fa6107a4565b5b80604052505050565b600061080e610625565b905061081a82826107d3565b919050565b600067ffffffffffffffff82111561083a576108396107a4565b5b610843826106f1565b9050602081019050919050565b82818337600083830152505050565b600061087261086d8461081f565b610804565b90508281526020810184848401111561088e5761088d61079f565b5b610899848285610850565b509392505050565b600082601f8301126108b6576108b561079a565b5b81356108c684826020860161085f565b91505092915050565b6000602082840312156108e5576108e461062f565b5b600082013567ffffffffffffffff81111561090357610902610634565b5b61090f848285016108a1565b91505092915050565b600081519050919050565b600082825260208201905092915050565b6000819050602082019050919050565b600060408301600083015161095c600086018261069c565b50602083015184820360208601526109748282610702565b9150508091505092915050565b600061098d8383610944565b905092915050565b6000602082019050919050565b60006109ad82610918565b6109b78185610923565b9350836020820285016109c985610934565b8060005b85811015610a0557848403895281516109e68582610981565b94506109f183610995565b925060208a019950506001810190506109cd565b50829750879550505050505092915050565b60006020820190508181036000830152610a3181846109a2565b905092915050565b60008060408385031215610a5057610a4f61062f565b5b6000610a5e8582860161065a565b925050602083013567ffffffffffffffff811115610a7f57610a7e610634565b5b610a8b858286016108a1565b9150509250929050565b7f4e487b7100000000000000000000000000000000000000000000000000000000600052602260045260246000fd5b60006002820490506001821680610adc57607f821691505b602082108103610aef57610aee610a95565b5b50919050565b7f4e487b7100000000000000000000000000000000000000000000000000000000600052601160045260246000fd5b6000610b2f82610639565b9150610b3a83610639565b9250828201905080821115610b5257610b51610af5565b5b92915050565b60008190508160005260206000209050919050565b60006020601f8301049050919050565b600082821b905092915050565b600060088302610bba7fffffffffffffffffffffffffffffffffffffffffffffffffffffffffffffffff82610b7d565b610bc48683610b7d565b95508019841693508086168417925050509392505050565b6000819050919050565b6000610c01610bfc610bf784610639565b610bdc565b610639565b9050919050565b6000819050919050565b610c1b83610be6565b610c2f610c2782610c08565b848454610b8a565b825550505050565b600090565b610c44610c37565b610c4f818484610c12565b505050565b5b81811015610c7357610c68600082610c3c565b600181019050610c55565b5050565b601f821115610cb857610c8981610b58565b610c9284610b6d565b81016020851015610ca1578190505b610cb5610cad85610b6d565b830182610c54565b50505b505050565b600082821c905092915050565b6000610cdb60001984600802610cbd565b1980831691505092915050565b6000610cf48383610cca565b9150826002028217905092915050565b610d0d826106ab565b67ffffffffffffffff811115610d2657610d256107a4565b5b610d308254610ac4565b610d3b828285610c77565b600060209050601f831160018114610d6e5760008415610d5c578287015190505b610d668582610ce8565b865550610dce565b601f198416610d7c86610b58565b60005b82811015610da457848901518255600182019150602085019450602081019050610d7f565b86831015610dc15784890151610dbd601f891682610cca565b8355505b6001600288020188555050505b505050505050565b610ddf81610639565b82525050565b600082825260208201905092915050565b6000610e01826106ab565b610e0b8185610de5565b9350610e1b8185602086016106c7565b610e24816106f1565b840191505092915050565b6000604082019050610e446000830185610dd6565b8181036020830152610e568184610df6565b90509392505050565b600081905092915050565b50565b6000610e7a600083610e5f565b9150610e8582610e6a565b600082019050919050565b6000610e9b82610e6d565b9150819050919050565b60008154610eb281610ac4565b610ebc8186610e5f565b94506001821660008114610ed75760018114610eec57610f1f565b60ff1983168652811515820286019350610f1f565b610ef585610b58565b60005b83811015610f1757815481890152600182019150602081019050610ef8565b838801955050505b50505092915050565b6000610f348284610ea5565b915081905092915050565b6000610f4a82610639565b9150610f5583610639565b9250828203905081811115610f6d57610f6c610af5565b5b92915050565b7f4e487b7100000000000000000000000000000000000000000000000000000000600052603260045260246000fd5b6000610fad82610639565b91507fffffffffffffffffffffffffffffffffffffffffffffffffffffffffffffffff8203610fdf57610fde610af5565b5b60018201905091905056fea264697066735822122031bf72665b98ac1e35f76699c1fedcb8252f87fe67f35ef4c6786e95cc8542b964736f6c63430008110033",
  "devdoc": {
    "author": "Emmanuel Ezeka",
    "kind": "dev",
    "methods": {},
    "title": "An on-chain todo application",
    "version": 1
  },
  "userdoc": {
    "kind": "user",
    "methods": {
      "createItem(string)": {
        "notice": "create todo item"
      },
      "deleteItem(uint256)": {
        "notice": "delete todo item"
      },
      "getItem(uint256)": {
        "notice": "get item"
      },
      "getItems()": {
        "notice": "get items"
      },
      "updateItem(uint256,string)": {
        "notice": "update todo item"
      }
    },
    "version": 1
  },
  "storageLayout": {
    "storage": [
      {
        "astId": 11,
        "contract": "contracts/Todo.sol:Todo",
        "label": "todoCounter",
        "offset": 0,
        "slot": "0",
        "type": "t_uint256"
      },
      {
        "astId": 16,
        "contract": "contracts/Todo.sol:Todo",
        "label": "items",
        "offset": 0,
        "slot": "1",
        "type": "t_mapping(t_uint256,t_struct(Item)8_storage)"
      }
    ],
    "types": {
      "t_mapping(t_uint256,t_struct(Item)8_storage)": {
        "encoding": "mapping",
        "key": "t_uint256",
        "label": "mapping(uint256 => struct Todo.Item)",
        "numberOfBytes": "32",
        "value": "t_struct(Item)8_storage"
      },
      "t_string_storage": {
        "encoding": "bytes",
        "label": "string",
        "numberOfBytes": "32"
      },
      "t_struct(Item)8_storage": {
        "encoding": "inplace",
        "label": "struct Todo.Item",
        "members": [
          {
            "astId": 5,
            "contract": "contracts/Todo.sol:Todo",
            "label": "itemId",
            "offset": 0,
            "slot": "0",
            "type": "t_uint256"
          },
          {
            "astId": 7,
            "contract": "contracts/Todo.sol:Todo",
            "label": "item",
            "offset": 0,
            "slot": "1",
            "type": "t_string_storage"
          }
        ],
        "numberOfBytes": "64"
      },
      "t_uint256": {
        "encoding": "inplace",
        "label": "uint256",
        "numberOfBytes": "32"
      }
    }
  }
}